:020000040800F2
:100000000000052099050008A91E0008AB1E000885
:10001000AD1E0008AF1E0008B11E00080000000061
:10002000000000000000000000000000F16C00086B
:10003000B31E000800000000816D0008E96500089B
:10004000E9050008E9050008E9050008E9050008D8
:10005000E9050008E9050008E9050008E9050008C8
:10006000E9050008E9050008E9050008E9050008B8
:10007000E9050008E9050008E9050008E9050008A8
:10008000E9050008E9050008E9050008E905000898
:10009000E9050008E9050008E9050008E905000888
:1000A000E9050008E9050008E9050008E905000878
:1000B000E9050008E9050008E9050008E905000868
:1000C000E9050008E9050008E9050008E905000858
:1000D000E9050008E9050008E9050008E905000848
:1000E000E9050008E9050008E9050008E905000838
:1000F000E9050008E9050008E9050008E905000828
:10010000E9050008E9050008E9050008E905000817
:10011000E9050008E9050008B51E0008E905000822
:10012000E9050008E9050008E9050008E9050008F7
:10013000E9050008E9050008E9050008E9050008E7
:10014000E9050008E9050008E9050008E9050008D7
:10015000E9050008E9050008E9050008E9050008C7
:10016000E9050008E9050008E9050008E9050008B7
:10017000E9050008E9050008E9050008000000009D
:10018000E9050008E9050008E9050008E905000897
:10019000E9050008E9050008E9050008E905000887
:1001A000B91E0008E9050008C51E0008E905000899
:0401B000D11E000854
:1001C00010B5054C237833B9044B13B10448AFF391
:1001D00000800123237010BD4001002000000000BA
:1001E00008A6010808B5034B1BB103490348AFF348
:1001F000008008BD000000004401002008A601089E
:1002000001F0FF01102A2BDB10F0070F08D010F8C7
:10021000013B013A8B422DD010F0070F42B3F6D1CB
:10022000F0B441EA012141EA014122F007047FF0E4
:1002300000070023F0E80256083C85EA010586EA3B
:10024000010685FA47F5A3FA87F586FA47F6A5FA77
:1002500087F68EB9EED1F0BC01F0FF0102F0070283
:1002600032B110F8013B013A83EA010313B1F8D12E
:100270000020704701387047002D06BF354603380F
:10028000073815F0010F07D1013015F4807F02BF48
:10029000013015F4C03F0130F0BC0138704700BF99
:1002A00053B94AB9002908BF00281CBF4FF0FF31DD
:1002B0004FF0FF3000F06EB9ADF1080C6DE904CEDF
:1002C00000F006F8DDF804E0DDE9022304B0704731
:1002D0002DE9F047089D04468C46002B40F08380B2
:1002E0008A42174647D9B2FA82F242B1C2F12000DF
:1002F00024FA00F09140974040EA010C94404FEA04
:100300001748230CBCFBF8F61FFA87FE08FB16C142
:1003100043EA014306FB0EF1994209D9FB1806F1A5
:10032000FF3080F01981994240F21681023E3B4431
:100330005B1AA4B2B3FBF8F008FB103344EA0344A1
:1003400000FB0EFEA64509D93C1900F1FF3380F0F1
:100350000581A64540F2028102383C4440EA06404D
:10036000A4EB0E0400261DB1D4400023C5E90043D0
:100370003146BDE8F08702B9FFDEB2FA82F2002A08
:1003800050D1CB1B4FEA174E1FFA87F80126B3FB5B
:10039000FEFC210C0EFB1C3341EA034108FB0CF36D
:1003A0008B4207D979180CF1FF3002D28B4200F250
:1003B000E9808446C91AA3B2B1FBFEF00EFB10110E
:1003C00043EA014408FB00F8A04507D93C1900F1B5
:1003D000FF3302D2A04500F2D9801846A4EB0804EE
:1003E00040EA0C40BFE78B4209D9002D00F0B180F4
:1003F0000026C5E9000130463146BDE8F087B3FA72
:1004000083F6002E4AD18B4202D3824200F2B8809A
:10041000841A61EB030101208C46002DA8D0C5E9A8
:10042000004CA5E7C2F1200320FA03F6974001FA39
:1004300002F04FEA174ED9403043030CB1FBFEF6F1
:100440001FFA87F80EFB161143EA014306FB08F179
:10045000994204FA02F409D9FB1806F1FF3C80F036
:100460008D80994240F28A80023E3B445B1A81B201
:10047000B3FBFEF00EFB103341EA034100FB08F32F
:100480008B4207D9791800F1FF3C73D28B4271D9A6
:1004900002383944CB1A40EA064678E7C6F1200C08
:1004A00003FA06F422FA0CF31C4320FA0CF701FAC3
:1004B00006F34FEA144E21FA0CF11F433B0CB1FB3B
:1004C000FEF91FFA84F80EFB191143EA014109FBFA
:1004D00008FA8A4502FA06F200FA06F308D961180A
:1004E00009F1FF3048D28A4546D9A9F102092144D1
:1004F000A1EB0A01BFB2B1FBFEF00EFB101147EAFF
:10050000014700FB08F8B84507D9E71900F1FF31AA
:100510002ED2B8452CD90238274440EA0940A7EB2F
:100520000807A0FB02894F45C64649461AD317D093
:100530005DB1B3EB0E0267EB010707FA0CFCF2406A
:100540004CEA0202F740C5E9002700263146BDE823
:10055000F0872E4628460BE70646E9E61846FDE6F4
:100560004345E5D2B8EB020E69EB04010138DFE741
:100570000846D2E760468DE78146B9E7664675E7EB
:1005800030464AE7ACF1020C394413E702383C44E8
:1005900024E700BF704700BFDFF834D0002103E03C
:1005A0000C4B5B58435004310B480C4B42189A4299
:1005B000F6D30B4A02E0002342F8043B094B9A426F
:1005C000F9D303F0C1F819F07BF800F06FFF704722
:1005D0000000052054D70108000000204001002041
:1005E0004001002058A60020FEE700F0E9BD00F021
:1005F00057BE0021084602F00FBC002002F046BCA6
:100600004068704741607047054A136843F0807343
:100610001360044A136843F001031360704700BF7E
:10062000FCED00E0001000E0511A01EB5301B1FBBA
:10063000F3F07047014B1868704700BF041000E0EA
:10064000704710B50C21044618F0CBFE204610BDB3
:10065000036810B51B69044631B19847A268636806
:100660009B1A1844606010BD9847A060FBE7704774
:100670007047000008B5FFF7BCFF024B00221A606C
:1006800008BD00BF5C01002070B50D46FFF7B5FF47
:100690000B4A937856781178D370C4B213F00100E6
:1006A0009670517014700AD016F0010007D011F046
:1006B000010004D0E3075ABF01202870002070BD5C
:1006C0005C01002010B50421044618F08AFE204683
:1006D00010BD704710B50421044618F082FE204674
:1006E00010BD000008B54FF4F0714FF4487002F0EF
:1006F00077FF074B10B901221A7008BD1B78002B39
:10070000FBD1044B044A0548242118F099FE00BF90
:1007100060010020ACA60108BFA60108E9A60108F7
:100720007FB50B4B1C780E4615465CB101A802F054
:1007300095FF9DF8043043B1BDF806303360BDF835
:100740000A302B60204604B070BD1C46FAE700BF9B
:100750006001002010B1012809D07047084B0948FA
:100760001A68B2FA82F25209402104F003B8044B2D
:1007700005485A68B2FA82F252091021F5E700BF23
:100780006401002000180240000C024010B1012852
:1007900009D07047084B09481A68003A18BF01226F
:1007A000402103F0E7BF044B05485A68003A18BFE0
:1007B00001221021F5E700BF64010020001802406B
:1007C000000C024010B1012804D0704703484021BA
:1007D00003F0D5BF02481021FAE700BF001802401D
:1007E000000C024008B530B1012809D00020431E9A
:1007F0005842584108BD0448402103F0B5FFF6E7D0
:1008000002481021F9E700BF00180240000C024026
:1008100070B5084D00240126E0B2FFF7E3FF18B1E0
:100820002B68012B18BF2E600134052C05F104053F
:10083000F2D170BD64010020012380F8741080F8AB
:10084000753070470020704700207047836B0BB1F4
:100850000846184770474FF6FF70704740680368B6
:100860009B69184770477047014B1868704700BF75
:10087000740100207047000038B50446094DFFF7A9
:10088000C7FF204600F08EFD002384F84A3028463A
:10089000FFF7BAFE012384F86C30034B25616361D6
:1008A00038BD00BF800100207C01002003680446A1
:1008B00007B59B6F9847236820461B6F984700F049
:1008C00017FA236820469B6E98470021064800913E
:1008D0002923152203F037FD00F00AFA2368204689
:1008E0009B6E9847F8E700BFE8A3002010B50446C8
:1008F00009F0A4F823682046D3F8A030BDE81040E2
:10090000184700F04EBD00F065BD00F065BD00F079
:1009100037BD00F03DBD00F061BD0000024B00227C
:100920001A7008F06FBA00BF1400002010B504461A
:1009300008F074FA94F84B3013B1024B01221A708C
:1009400010BD00BF1400002008F022BA10B57C21B1
:10095000044618F046FD204610BD90F877301BB1D4
:10096000406803681B6818471846704730B590F810
:10097000341090F87440104B8C421A780DD05AB94C
:100980000E4A0F490F4814880F4D0C8001881180C2
:100990002980048001221A7030BD002AFCD0094849
:1009A000074A01881180054A074D14882C80118060
:1009B00004800022EFE700BFE4A00020E0A00020B8
:1009C000E6A00020E2A00020E8A0002010B50C4C1A
:1009D000216031B90B4B0C4A0C484FF4257118F0CB
:1009E0002FFDC0E90F12003A0949436418BF0122E4
:1009F0000A70003B074A18BF0123137010BD00BFE7
:100A00007401002054A701088CA70108DAA7010887
:100A1000EAA00020EBA00020012807B50AD84B78F7
:100A200000930B7808481522002103F08CFC03B0DA
:100A30005DF804FB01910B5C009339220346002111
:100A4000014803F091FCF2E7E8A3002037B50B4A18
:100A50000B4C02231525137055700192442200920D
:100A600000213922204603F07FFC0021009135232C
:100A70002A46204603F067FC03B030BD8C010020FD
:100A8000E8A3002007B50190FFF7E0FF019803B04D
:100A90005DF804EB00F084BC07B5074B03EB800066
:100AA0002A2301900093392204230021034803F0F4
:100AB0005BFC03B05DF804FB04000020E8A3002009
:100AC00070B5154D04460020FFF744FE2A6892F8E1
:100AD0006630013382F8663000F0FEF80F4B28686C
:100AE0001A781B7880F84A2023B10D4D2B7803F03B
:100AF000FF0623B1BDE870400020FFF747BE08F0B5
:100B00009DFF084B30461E60FFF7C6FF204603F0EE
:100B10000AFC01232B7070BDECA000201400002003
:100B20008E01002078010020304B314A70B5054617
:100B30001868304C013018602F4B03281E682ADCDF
:100B4000D4F804144FF4C87303FB006321F00801C8
:100B5000C4F8041493620CBFE823C8230233274966
:100B60001B0443F4F1730B61254B4B61A3F5F07348
:100B70005360244BD36201234B62FFF78DFF1D4A64
:100B8000D2F8043443F008032846C2F80434BDE820
:100B9000704003F0C8BBD4F804341B4923F00803A9
:100BA000C4F80434154B9662196101F101115961C1
:100BB000164951601349D16201225A620020FFF7A1
:100BC0006BFFD4F8043443F00803C4F80434002065
:100BD000FFF7DCFD0E4B00221A700E4B186820B197
:100BE0000368BDE87040DB69184770BD78010020DC
:100BF00084680140006C01407401002000680140DD
:100C0000E301CA0093018006E201CA000300CA00A2
:100C10008E010020ECA0002008B5044B01461868A6
:100C200001B1012108F024FF012008BDECA0002043
:100C3000054B064800225A609A60054A1A60054B27
:100C40000360FFF717BD00BF800100207C0100207A
:100C500070A6010898A60108012108B500220846DF
:100C600005F064FD0A4B186028B90A4B0A4A27218F
:100C70000A4818F0E5FB00220421012005F0F4FDEC
:100C8000074B186018B9074B034A2B21F0E708BD42
:100C900094010020ECA8010835A9010864A9010805
:100CA00090010020B4A90108024B4FF0FF311868F1
:100CB00005F086BD94010020014B186805F0ACBD1D
:100CC00094010020024B0021186805F079BD00BF97
:100CD00094010020FFF7F0BF034804490068002397
:100CE0001A4605F0FDBD00BF90010020180000204D
:100CF00013B5084C00231A4601A9206805F020FE10
:100D000020684FF0FF33002201A905F019FE02B060
:100D100010BD00BF9001002005F0EABC03685B6CC9
:100D200018470120704703689B6A184782B0002368
:100D300001930D4B1A6B42F400021A631A6B02F412
:100D400000020192019A1A6942F400021A611A69BA
:100D500022F400021A61054B054A1A61054B4FF057
:100D600080629A6002B0704700380240B0A4002050
:100D7000810D000800E100E040F2EF307047000014
:100D8000024B1B68586803685B691847ECA0002099
:100D900008B50B280BD8DFE800F01206100A0A0A83
:100DA0000A0808080808012008BD0520FCE7054BD3
:100DB000054A0648652118F043FB0020F4E70220AD
:100DC000F2E700BFF6A9010811AA01085DAA01080F
:100DD00008B50A2809D8DFE800F010060E08080850
:100DE000080606060600012008BD054B054A064810
:100DF000862118F025FB0020F6E70220F4E700BF6B
:100E0000F6A90108ABAA01085DAA01082DE9F8437B
:100E100091F81D800C464046FFF7BAFFA77F0546B4
:100E20003846FFF7B5FF06463846FFF7D1FFA18ADF
:100E3000628B534B521A1A649A61228B521A1A61AE
:100E4000E28A586342EA01425A6421696268D963BE
:100E5000DA60D4F800C094F81C90BCF1800F4FEA1F
:100E600009629E463BD015D8BCF1200F45EA02002E
:100E700079D0BCF1400F76D0BCF1040F2BD0404BA1
:100E80002A4342F40032B845DA6114BF3D4A40F2C9
:100E900001221EE0BCF5807F07D0BCF5007FEED1BB
:100EA00042F4003242F0090203E042F4003242F020
:100EB0000A02DA61E0680202440102F4780204F4F2
:100EC0007C44C0002243C0B202431A622E4A5E62D2
:100ED00059611A6043E040F40030D861F6E7A06839
:100EE0002A4342F40032041DDC62DA6102785E6259
:100EF000596142B1012A1CD0244B254A25484FF4A0
:100F0000887118F09DFA4288D969501E21F47F42F9
:100F100022F0100242EA0022DA610125184CE3694E
:100F200043F02003E361E3699B0613D5FFF7F4FE6A
:100F3000F9E74288D969501E21F47F4222F010025D
:100F400042EA0022B9F1FF0542F0100218BF012564
:100F5000DA61E3E71023A3601DB10B4B2360BDE80A
:100F6000F883084BFAE7084B40F40030CEF81C0039
:100F7000CEF82460CEF81410CEF80030EFE700BFB2
:100F800000B002400102010001020200F8AA0108BB
:100F900012AB01085DAA0108F8B58E7F0C463046F9
:100FA000FFF716FFA78AE18A628B1E4B25695863FB
:100FB00041EA0741D21B5964DD631A64216808299C
:100FC00018D19A611A615862217F174A42EA016278
:100FD000DA61E1680A02480102F4780200F47C4018
:100FE000C9000243C9B20A431A62104A5D61DD605A
:100FF0001A60F8BD0022D8611A61E1681EB99963D0
:10100000084B0B4AF4E70A02480102F4780200F4A4
:101010007C40C900C9B202430A43217F42EA01620F
:101020009A63EDE700B002400900010001020200EE
:1010300001020300054B0360054B4FF08062C3F8CB
:101040008820BFF34F8FBFF36F8F70475CAB0108F1
:1010500000E100E010B50446FFF7ECFF20464FF436
:10106000426118F0BEF9204610BD000070B504467C
:1010700025460A4B0C30002660602672667245F8E1
:10108000203B6022294608F02BFE04F54263EE6007
:101090002035AB42FBD1204670BD00BF5CAB0108E0
:1010A000012070470C2070470C2303FB010008301F
:1010B00070470C2303FB0100083070470120704784
:1010C0006C2070476C2303FB0100083070476C23D1
:1010D00003FB010008307047012070471020704763
:1010E00000EB01100830704700EB0110083070472A
:1010F000084601F011B8000010B5034B0360044628
:1011000007F05AFC204610BD14AC010810B5044687
:10111000FFF7F2FF2046142118F063F9204610BDB6
:1011200010B5034B0360044607F046FC204610BD93
:10113000E0AB010810B50446FFF7F2FF204674212A
:1011400018F04FF9204610BD10B5034B036004465C
:1011500007F032FC204610BDACAB010810B50446C8
:10116000FFF7F2FF2046182118F03BF9204610BD8A
:1011700010B5084B044640F8A03BFFF7BDFF04F153
:101180002C00FFF7CDFF04F11400FFF7DDFF204630
:1011900010BD00BF48AC010808B50248FFF7E8FFE2
:1011A00008BD00BF9C01002010B50446FFF7E0FF1A
:1011B00020464FF4047118F014F9204610BD0000C9
:1011C0002DE9F34100F0F6FE054600F0F7FE00249D
:1011D000014623462846224600940CF04FFA254B40
:1011E000254A264D1A60204601F036FA24480CF0B4
:1011F00087F92B78BFF35B8FDB0735D4284618F0CF
:10120000F2F888B31F4C204B236004F1B80604F1B8
:10121000140004F12C0804F1A0076060C4F80880F1
:10122000E760266107F0CAFB184B6361404607F090
:10123000C5FB174BE362384607F0C0FB154BC4F8FB
:10124000A03004F1B40001F071FA224604F1B401B7
:10125000304601F061FA304600F05EFF284618F093
:10126000CEF80D4818F00AF90C4802B0BDE8F0417C
:10127000FFF702BB48A100204C100020980100207D
:101280001C0000209C01002048AC0108ACAB010808
:10129000E0AB010814AC010899110008D00F002040
:1012A0000148FFF703BB00BFD00F002070B5244CEE
:1012B000244E254B254D23603046FFF7D7FE2846A8
:1012C0000FF060FA224B00224FF48071C3E9121232
:1012D0002049DC60C3E919124FF080715967012180
:1012E00083F878101C491D4C0B601D491A854FF47A
:1012F000507008804FF4F071C3E90422C3E906225C
:10130000C3E90822C3E90E22C3E91022C3E914226B
:10131000C3E9162283F82A20DA621A861A6683F84D
:101320006C201A67C3E9016521800E4C83F83420D4
:1013300022700D4C0D4A20800D481A60018070BD4E
:10134000AC030020B003002044A701085010002087
:10135000D00F002001000001ECA00020E2A000203E
:10136000E0A00020E4A00020E6A0002028A80108BA
:10137000E8A000200148FFF75DBE00BFB0030020D9
:10138000024B902283F85A23704700BF00E100E02F
:10139000024B4FF080629A60704700BF00E100E0AE
:1013A0007047704738B5044607F045FD2368DD6D8A
:1013B00009F022FD01462046A8472368D3F8805053
:1013C00000231A464FF040412046A847012384F8E5
:1013D0004A3038BD07F0E2BC07F03BBE044B4FF08B
:1013E0008062C3F88820BFF34F8FBFF36F8F7047C1
:1013F00000E100E00149002006F0FCBD190C0008E6
:1014000008B5642005F086F9FBE7000030B595B01B
:101410001022002109A818F099F91422002102A82D
:1014200018F094F900241F4B00941A6C42F080527B
:101430001A641B6C03F080530093009B1A4B0194B9
:101440001A6842F440421A601B6803F44043019357
:101450000122019B4FF48033CDE9072302254FF48D
:1014600080030821CDE90D534FF4B473CDE90F1378
:1014700004200623CDE9120307A8119504F02CFDE2
:1014800003F07CFF0F23CDE9023504944FF4805321
:101490004FF4A054052102A8CDE9054304F0F0FA69
:1014A00015B030BD00380240007000402DE9804882
:1014B000B9B002F057F9FFF7A9FF142200212BA8B9
:1014C000002418F043F9C94B02941A6BC84842F043
:1014D00010021A631A6B02F010020292029A03942D
:1014E0001A6B42F002021A631A6B02F002020392B4
:1014F000039A04941A6B42F040021A631A6B02F0CA
:1015000040020492049A05941A6B42F008021A638E
:101510001A6B02F008020592059A06941A6B42F4BF
:1015200080721A631A6B02F480720692069A07940C
:101530001A6B42F020021A631A6B02F02002079223
:10154000079A08941A6B42F480621A631A6B02F4C9
:1015500080620892089A09941A6B42F080021A631A
:101560001A6B02F080020992099A0A941A6B42F0EF
:1015700004021A631A6B02F004020A920A9A0B948C
:101580001A6B42F400721A631B6B03F400730B9323
:10159000012208210B9B03F0EDF89648224610210A
:1015A00003F0E8F894482246402103F0E3F822468D
:1015B0009248802103F0DEF8112608238C482BA9DD
:1015C00001274FF00208CDE92B364FF0100BCDE983
:1015D0002D4402F041FF87482D942BA9CDE92BB76C
:1015E000CDF8B88002F038FF402383482BA980252E
:1015F000CDE92B37CDE92D4802F02EFF2BA903238F
:101600007E482E93CDE92B562D9402F025FF7C4881
:101610007C4E7D4B036002F03FF97C4BC6E90A44E7
:10162000C6E90C443046C6E90034C6E9024402F07B
:1016300047FA3946304602F0FBFA294622466F48FF
:10164000734E03F097F8142002F0ACF829463A469E
:101650006A4803F08FF80A2002F0A4F824222146F9
:1016600015A818F073F8182221460FA818F06EF884
:10167000342221462BA818F069F82C2221461EA8F6
:1016800018F064F8634B0E940425C6E900340CA9E5
:101690007D233046C6E90257CDE90C3802F090FBB5
:1016A00015A93046CDE91574CDE91744CDE91944A3
:1016B000CDE91B441D9402F0ADFD1C222123CDE990
:1016C0000F230F211923CDE9111330460FA9CDE9BE
:1016D000134402F062FD2946304602F04DFD42F20D
:1016E0001071304602F0A1FE2146304602F005FBA3
:1016F0004FF480704FF40073CDE92B034FF4806AF0
:101700004FF400634FF48052CDE92DA34FF4005302
:10171000CDE92F234FF480494FF480334FF4003C40
:10172000CDE931934FF48023CDE933C34FF4002E3C
:101730004FF080732BA93046CDE935E3CDF8DC803E
:1017400002F0E6FCC8231EA93046CDE9203BCDE9D6
:101750002245CDE91E44CDE92484CDE926442897CD
:1017600002F064FC2146304602F04FFC2A482B4927
:101770000462C0E9001440232021C0E904134FF49F
:10178000C071C0E90614072103234FF48052CDE94C
:101790002C152E912BA9CDE92F38C0E90929C0E9D4
:1017A0000245CDF8AC80CDF8C48004F04BFD01F0CB
:1017B00001FF01F0B1FE342221461EA8184D17F09A
:1017C000C5FF184AAC86C5E90024CA234FF4F1725C
:1017D000C5E90932CB2140F2E3122846C5E90B12D4
:1017E000C5E90244C5E904471EE000BF00380240D5
:1017F00000280240000C024000180240001C024079
:10180000E0A30020B0A400200030024000B002405D
:10181000E8A30020006C0140F0A40020400100A0DB
:1018200004A4002000680140C5E90678C5F82080BE
:1018300085F8364003F06CFCFF21C8234FF4F072AA
:10184000CDE9231405204FF04041CDE92601CDE933
:1018500028321EA9CDE9212828462246CDE91F3489
:101860001E94CDF894A0ADF8A8408DF8AA4003F0DE
:101870001BFD2A68936923F001039361304602F04F
:101880002FFD3946404601F009F82823152221464C
:101890003046009402F057FD2BA93046CDE92B4489
:1018A000CDE92D44CDE92F44CDE93144CDE9334490
:1018B000359402F02DFC4FF448712246284603F07F
:1018C00021FD2A681E4893691E4D1F4E3B439361BC
:1018D0001E4B0462C0E900371B23C0E9043AC0E98B
:1018E000027BC0E9064403F061FE01F0DBFC01F07D
:1018F0000FFC01F085FB164B2C622846C5E90063FE
:10190000C5E90244C5E90494C5E9064403F01CF99D
:10191000284603F0C1F9FEF768FE04F073FE0D4A95
:101920000D48214604F09AFE0C4B0D4A18602146E2
:101930000C4804F093FE0C4B186004F075FEFEE7B3
:1019400024A500208CA3002000540040001000A01B
:10195000801A060094AC01080114000888A3002036
:1019600070AC0108EF050008ACA40020704700002F
:1019700082B00E4B00220092596C41F480415964B0
:10198000596C01F48041009100990192196C41F069
:10199000805119641B6C03F080530193019B0F214C
:1019A0006FF0010002B001F023BF00BF0038024019
:1019B0000268094B9A4282B00BD100230193074B76
:1019C0001A6B42F480521A631B6B03F48053019329
:1019D000019B02B0704700BF003002400038024057
:1019E00007B50F4B02689A4216D10022A3F5F043C7
:1019F0000192196B41F4000119631B6B03F400039E
:101A0000019305215A20019B01F0F2FE5A2003B0F8
:101A10005DF804EB01F01EBF03B05DF804FB00BFEE
:101A200000B0024010B5044688B01422002103A87B
:101A300017F08CFE2268184B9A422AD103F54C43CA
:101A4000002401945A6C154842F000625A645A6CA2
:101A500002F000620192019A02941A6B42F4007241
:101A60001A631B6B03F4007302930422029B02238C
:101A7000CDE9032303A90D230793CDE9054402F023
:101A8000EBFC5C202246052101F0B2FE5C2001F057
:101A9000E1FE08B010BD00BF006C01400024024010
:101AA00030B5044689B01422002103A817F04EFE79
:101AB00022681A4B9A422FD1194C1A4800250195D9
:101AC000236B43F002032363236B03F002030193B0
:101AD000019B4FF440721223CDE90323012103231C
:101AE000CDE90513042303A9079302F0B5FC029581
:101AF000236C43F400132364236C03F40013029358
:101B0000029B236A43F400132362236A23F4001325
:101B10002362642001F046FE09B030BD005400404D
:101B2000003802400004024008B502680A4B9A429D
:101B300010D10A4A0A48136C23F4001313644FF4BB
:101B4000807102F06FFDBDE8084005484FF4007158
:101B500002F068BD08BD00BF0054004000380240DC
:101B60000004024010B5044690B03C22002101A8B8
:101B700017F0ECFD2268134B9A4221D10823019300
:101B80004FF4B47305930024062301A808930B9423
:101B900004F040F808B1FFF7E9FE0B4B00945A6CD3
:101BA00042F080625A645B6C03F0806300935820BB
:101BB00000220521009B01F01BFE582001F04AFE87
:101BC00010B010BD0068014000380240F0B5044676
:101BD00089B01422002103A817F0B8FD2268244B15
:101BE0009A4243D1234B2448002400949A6B42F03C
:101BF00002029A639A6B02F002020092009A019428
:101C00001A6B42F002021A631A6B02F0020201928E
:101C1000019A02941A6B42F020021A631B6B05941E
:101C200003F02003029302260325029B0A27402388
:101C300003A9CDE90336CDE9065702F00DFC4FF4B8
:101C40009863CDE903360D48092303A90793CDE92D
:101C5000054502F001FC4FF440730848079703A9BB
:101C6000CDE90336CDE9054502F0F6FB09B0F0BD3C
:101C7000001000A00038024000040240001402409E
:101C800008B50268094B9A420FD1094A0948936B7B
:101C900023F002039363402102F0C4FCBDE8084036
:101CA00005484FF4F86102F0BDBC08BD001000A06B
:101CB000003802400004024000140240F0B5314BED
:101CC0001C6887B0002C5BD101221A602E4B009457
:101CD0009A6B2E4842F001029A639B6B039403F0C7
:101CE00001030093022703260C25009B01A94FF650
:101CF0008373CDE90137CDE9046502F0ADFB48F20D
:101D000033132348059501A9CDE90137CDE90346F1
:101D100002F0A2FB4CF203731E48059501A9CDE920
:101D20000137CDE9034602F097FB40F2FF631A4802
:101D3000059501A9CDE90137CDE9034602F08CFBF9
:101D40004FF63F031548059501A9CDE90137CDE9C7
:101D5000034602F081FB4FF47F431148059501A92A
:101D6000CDE90137CDE9034602F076FB0D230D489E
:101D7000059501A9CDE90137CDE9034602F06CFBD9
:101D800007B0F0BDCC100020003802400010024027
:101D900000180240000C02400020024000140240E3
:101DA000001C02400008024008B5174B1A6852BBDD
:101DB00001221A60154A1648936B23F001039363BE
:101DC0004FF6837102F02EFC124848F2331102F0F4
:101DD00029FC11484CF2037102F024FC0F4840F238
:101DE000FF6102F01FFC0E484FF63F0102F01AFCA3
:101DF0000C484FF47F4102F015FCBDE808400A484A
:101E00000D2102F00FBC08BDC810002000380240B0
:101E10000010024000180240000C02400020024066
:101E200000140240001C02400008024030B5014688
:101E300089B00022362001F0DBFC362001F00AFDDB
:101E40000025154B02951A6C144C42F010021A64CE
:101E50001B6C03F01003029301A903A8029B03F07B
:101E6000BBFE03F0A9FE0E4B236040F2E733E360B4
:101E700040000C4BB0FBF3F0013860602046256158
:101E8000A56004F0D7FA20B9204604F033FA09B06F
:101E900030BD0120FBE700BF0038024070A50020E4
:101EA0000010004040420F007047FEE7FEE7FEE7EB
:101EB000FEE7704770470000014803F098B900BF83
:101EC00004A40020014801F029BE00BFB0A40020F6
:101ED000014802F028B800BFE8A3002001207047A5
:101EE00008B517F0DFFA162303604FF0FF3008BD86
:101EF00008B517F0D7FA16230360FEE770B50E4653
:101F000014460025A54201DB204670BDAFF30080DA
:101F100070550135F6E770B50E4614460025A5420A
:101F200001DB204670BD705DAFF300800135F6E740
:101F30004FF0FF3070474FF400534B600020704764
:101F4000012070470020704708B50A4B1968024607
:101F500009B9094919601868694602448A4206D9D4
:101F600017F0A0FA0C2303604FF0FF3008BD1A6091
:101F7000FCE700BFD010002058A60020704710B525
:101F80000421044617F02DFA204610BD012908B59A
:101F900006D0022908D059B900F098FB006808BDA6
:101FA00000F094FB4068FAE700F090FB8068F6E7E9
:101FB0000020F4E700487047CCAC010801207047CE
:101FC00013B5002451B1036801948DF8034001AAB0
:101FD0009C680DF10303A04702B010BD0846FBE763
:101FE00040897047808970478088704783798088EE
:101FF000184480B27047C07900F07F007047C07904
:10200000C0097047704700F596730868496803C3B4
:1020100070477047704741607047704701230372F3
:1020200070477047704710B4C26841685410034647
:1020300001EB6200D20748BF0A599B685DF8044B68
:1020400048BFD358184743682BB183682BB9C06881
:1020500000F001007047184670470120704710B526
:102060000C21044617F0BDF9204610BD10B5102113
:10207000044617F0B6F9204610BD10B54FF4AC7108
:10208000044617F0AEF9204610BD10B508F0B4FEB6
:102090000368BDE810401B6B184710B50446D0F824
:1020A0003C0158B10368DB68984738B1D4F83C016B
:1020B00003689B6898470023C4F83C3110BD0000BA
:1020C00070B504460D46164608F0B6FE0E4B0021CC
:1020D000C4E954650D4D1C60C4E952110C4B2360DA
:1020E00028680C4BC4E950310368C4E94E119B6861
:1020F00098472B6893F876200AB1D86C00B9986895
:1021000010F073F8204670BD38A10020ECA000202C
:1021100020B0010808B00108064BC0F84831002380
:10212000C0F84C3100F5A073C0F84401C0F83C3150
:10213000704700BF752200082DE9F84F07469068E8
:10214000DDF828A0994603681B6A8846144698471C
:102150006B2805D8414B424AA321424817F070F939
:10216000606803681B6A98470F2803D83E4B3C4AB7
:10217000A421F2E7E06803681B6A98470B2803D89C
:102180003A4B374AA521E8E708F036FE08F03AFE58
:10219000D9F8000010B10368DB689847D9F800004F
:1021A00010B103681B689847386810B103685B6911
:1021B0009847D8F8000010B103685B689847386802
:1021C00010B103681B689847D8F8000010B1036885
:1021D0009B689847E068036800215B6A98474FF066
:1021E000000B234B03600546C0F804B080F808B02C
:1021F000A068036859465B6A9847064600F0C2FA31
:102200006068036859465B6A98473146044600F0A7
:102210009FFAC9F80050C8F800403E60E4B1231DA1
:10222000CAF800303368C4F808A03046DB68F463AD
:102230009847236820461B689847294630460AF08D
:1022400010FA2B6828461B6998472B6828465B695B
:1022500098472046BDE8F88F2346E1E7E0AC010847
:102260006EAD010872AE0108B9AE01085CAF01089D
:1022700064B0010807B5D0F854310093D0F850216C
:10228000044B00F59C710448FFF756FF03B05DF85E
:1022900004FB00BF2CA1002028A10020006A704789
:1022A000406A704770478B8880690A68DB0A50F87B
:1022B00023001044704710B5C2B1137BB3B1547BF7
:1022C000D27A240204F4E0641443C26998B202EBA7
:1022D000840213888B4202D192F9020010BD05D806
:1022E000013880B204320028F3D1F7E70020F5E787
:1022F00010B52821044617F074F8204610BD0000E0
:1023000030B589B00446BDF850500695BDF84C5024
:1023100005959DF8405004959DF83C5003959DF817
:10232000385002959DF8345001959DF83050009535
:1023300009F09AFD064B2360119BA361129BE36198
:10234000159B2362169B6362204609B030BD00BF17
:1023500088B001080020704781807047C1807047B5
:1023600001817047418170477047704770477047DF
:10237000704710B4C4880368121B84881B6D091B46
:1023800012B25DF8044B09B218474FF6FF73838110
:102390004FF0FF3303621368C361106070477047EA
:1023A000704770477047704790F825201AB190F831
:1023B000242002B1186070477047704710B56C2137
:1023C000044617F00EF8204610BD000038B504464C
:1023D000254609F0C9FF0023144AE36345F8402B62
:1023E000134A2366C4E910234FF48072A4F86420D2
:1023F000FF22C4E91233C4E91433C4E9163384F864
:102400006620A36628464FF44871FFF7A9FF2846C7
:102410004FF4F071FFF7A6FF4FF07F43201DA36636
:10242000294606F075FB204638BD00BFE0B0010824
:1024300088C001087047000030B5154D2C78BFF3F7
:102440005B8F14F001048DB01ED1284616F0CBFF2F
:10245000D0B13F2307930F4B06930F4B0F49104802
:1024600008940122CDE904430423CDE90132CDE9EA
:1024700009440A2303940094FFF742FF284616F00C
:10248000BEFF084816F0FAFF05480DB030BD00BF8A
:10249000D410002020D701080CB101087801009069
:1024A000D8100020352400087047000030B5154DC5
:1024B0002C78BFF35B8F14F001048DB01ED1284639
:1024C00016F091FFD0B13F2307930F4B06930F4BAC
:1024D0000F49104808940122CDE904430423CDE9B3
:1024E0000132CDE90944142303940094FFF708FF57
:1024F000284616F084FF084816F0C0FF05480DB0C6
:1025000030BD00BF0011002024D7010810B1010820
:102510008801009004110020A924000870470000E1
:1025200030B5154D2C78BFF35B8F14F001048DB0DE
:102530001ED1284616F057FFD0B13F2307930F4B0B
:1025400006930F4B0F49104808940122CDE904432C
:102550000423CDE90132CDE90944282303940094F2
:10256000FFF7CEFE284616F04AFF084816F086FF11
:1025700005480DB030BD00BF2C11002028D7010840
:1025800014B1010898010090301100201D250008A9
:1025900000207047002070470EB403B503AB002144
:1025A00053F8042B019309F07DFA02B05DF804EBB7
:1025B00003B070470CB407B504AB53F8042B019378
:1025C00009F070FA03B05DF804EB02B07047000048
:1025D000C36B10B5044673B3038E2BB9184B194A5D
:1025E000BF21194816F02CFFC38D00EB43035B8B12
:1025F0000BB30AF03FFD238E012B03D8134B144A73
:10260000C421EEE7E28D531C9BB2092B194688BF0B
:10261000A3F10A0104EB410140F63F10498B8142CE
:1026200009D10A2B04EB420228BF002304EB430329
:10263000508B588351832046BDE810400AF0FEBB02
:1026400018B1010821B10108CCB1010816B2010886
:1026500024B201080AF0ACBB38B510BB114B1248CC
:102660001B681249B3B11A689C681A4402605A6820
:102670001A440A601C440E4B00221A8000F026F80F
:10268000054600F021F80B4B1C600B4B1D600B4BFB
:10269000188006E00B600A4B0A4A1C680260002C96
:1026A000E9D138BD581100205C11002060110020D4
:1026B000641100203CA1002044A1002040A1002082
:1026C000B0010090A80100900120704700487047B9
:1026D0006811002010B5FFF7E9FE044C2060FFF7F9
:1026E0001FFF6060FFF7A8FEA06010BD681100200A
:1026F000704710B54FF4AC71044616F072FE2046D8
:1027000010BD10B50446D0F8540100F012F8204670
:10271000BDE8104008F048BA10B50446FFF7D0FCF9
:10272000014B2360204610BD00B301080022026067
:1027300070477047704704387047704710B51021D4
:10274000044616F04EFE204610BDA0F10400F5E749
:1027500010B500228260044AC16002F108042032F0
:102760000460426010BD00BF3CB301087047704771
:10277000FFF723BE10B56C21044616F032FE20464A
:1027800010BD000010B50446FFF720FE014B23608A
:10279000204610BD6CB3010870470020704710B58B
:1027A000044600F07DFBA821E0B200F093FB80B26C
:1027B00010BD000013B500240221C0B28DF80740FF
:1027C00000F088FB8DF807009DF8073003F00F0339
:1027D0008DF807309DF80730022B88BF8DF8074031
:1027E000044B9DF807209DF807005A7000229A704C
:1027F00002B010BD7611002073B5154C1546A378B4
:1028000062789A420E461FD903B3012B14BF0021F0
:10281000092104230DEB0302C0B200F077FB9DF801
:1028200004309DF805201B0203F4706313433380CA
:102830009DF806309DF807201B0203F470631343D4
:102840002B80A3780133A37002B070BD0321E0E7B1
:10285000761100200122A421C0B200F023BB002287
:10286000A421C0B200F01EBBFFF7F9BF7047000003
:1028700010B4094B1A7890420AD05978884207D090
:102880000AB129B9012298545DF8044B00F008BB45
:102890005DF8044B704700BF7411002038B5044642
:1028A0000D460020CB49FEF7B7F8CB490320FEF7D1
:1028B000B3F8CA490020FEF7AFF8C9490220FEF775
:1028C000ABF8C6490020FEF7A7F8C6490020FEF77E
:1028D000A3F80A2000F030FBC3490020FEF79CF863
:1028E000C2490020FEF798F80A2000F025FBC049F5
:1028F0000020FEF791F8BF490020FEF78DF8BE4991
:102900000020FEF789F8BD490020FEF785F8BC4994
:102910000020FEF781F8BB490020FEF77DF8AD49A5
:102920000020FEF779F8B8490020FEF775F8B7499E
:102930000020FEF771F8B6490020FEF76DF8B549A2
:102940000020FEF769F8B4490020FEF765F8B349A6
:102950000020FEF761F8B2490020FEF75DF8B149AA
:102960000020FEF759F8A5490020FEF755F89949CF
:102970000020FEF751F8AC490220FEF74DF8AB49B4
:102980000020FEF749F8AA490020FEF745F8A949BA
:102990000020FEF741F8A8490020FEF73DF8A749BE
:1029A0000020FEF739F8A6490020FEF735F89749D0
:1029B0000020FEF731F8A3490020FEF72DF89549D5
:1029C0000020FEF729F8A0490020FEF725F89F49CE
:1029D0000020FEF721F89E490220FEF71DF87F49EE
:1029E0000020FEF719F89B490620FEF715F89A49D2
:1029F0000020FEF711F899490E20FEF70DF89849CE
:102A00000020FEF709F897490E20FEF705F89649D1
:102A10000020FEF701F895490A20FDF7FDFF9449D3
:102A20000020FDF7F9FF93490020FDF7F5FF6B4902
:102A30000020FDF7F1FF90490A20FDF7EDFF8F49D7
:102A40000020FDF7E9FF8E490F20FDF7E5FF8249E1
:102A50000020FDF7E1FF8B490F20FDF7DDFF8049E6
:102A60000020FDF7D9FF88490A20FDF7D5FF7E49F0
:102A70000020FDF7D1FF85490F20FDF7CDFF7C49F0
:102A80000020FDF7C9FF82490F20FDF7C5FF8149EE
:102A90000020FDF7C1FF80490A20FDF7BDFF7F49F7
:102AA0000020FDF7B9FF7E490A20FDF7B5FF4B492D
:102AB0000020FDF7B1FF7B490A20FDF7ADFF6F490C
:102AC0000020FDF7A9FF78490F20FDF7A5FF624917
:102AD0000020FDF7A1FF75490F20FDF79DFF60491C
:102AE0000020FDF799FF72490A20FDF795FF5E4926
:102AF0000020FDF791FF6F490F20FDF78DFF5C4926
:102B00000020FDF789FF6C490F20FDF785FF3F4945
:102B10000020FDF781FF69490020FDF77DFF68492E
:102B20000020FDF779FF67490020FDF775FF664932
:102B30000020FDF771FF65490020FDF76DFF254975
:102B40000020FDF769FF62490320FDF765FF214979
:102B50000020FDF761FF1F490020FDF75DFF5D4983
:102B60001020FDF759FF1B490020FDF755FF5A497A
:102B70001020FDF751FF00205849FDF74DFF782048
:102B800000F0DAF9002C00F0C980022C03D154497E
:102B90000020FDF741FF012D0BD152490020FDF728
:102BA0003BFF51490420FDF737FF50490420FDF752
:102BB00033FF4F490020FDF72FFF4E490020FDF75E
:102BC0002BFF4D490020FDF727FF4C490020FDF762
:102BD00023FF95E098B30108FEB30108AEB30108E6
:102BE00084B40108C4B30108DAB30108F0B30108E2
:102BF000F6B30108F8B30108FAB30108FCB3010801
:102C00009AB301089CB301089EB30108A0B3010860
:102C1000A2B30108A4B30108A6B30108A8B3010830
:102C2000AAB30108ACB3010802B50108B0B30108AA
:102C3000B2B30108B4B30108B6B30108B8B30108D0
:102C4000BAB30108BCB30108BEB30108C0B30108A0
:102C500005B5010808B50108C2B301080FB50108A0
:102C6000C6B301081EB50108C8B3010802B40108C3
:102C7000CAB30108E8B301080DB40108CCB30108D8
:102C800018B4010828B4010838B4010843B4010895
:102C900053B40108CEB3010863B40108D0B30108EE
:102CA0006EB4010879B4010887B4010897B401082B
:102CB000A7B40108B2B40108C2B40108EAB301081C
:102CC000ECB30108EEB30108F2B30108F4B3010854
:102CD000D2B40108E0B40108F1B40108D2B301088C
:102CE000D4B30108D8B30108D6B40108DBB4010895
:102CF000DCB30108DEB30108E0B30108E2B3010868
:102D000008490020FDF788FE07490020FDF784FEF2
:102D100006490020FDF780FE002038BD044920460A
:102D200037E700BFE4B3010898B30108E6B3010830
:102D3000D6B3010870B52E4D88B0284602F05EF972
:102D40000446002851D12B4A2B4B2C4E0190C5E94B
:102D500000234FF48043C5E90200C5E90430C5E90A
:102D600006002862336B43F002033363336B059034
:102D700003F002030193019B4FF480711223CDE90C
:102D8000031302200423CDE9060303A91C4801F024
:102D900063FB4FF400731A48039303A901F05CFB33
:102DA0000294336C43F400133364336C03F4001364
:102DB0000293029B336A43F400133362336A23F4B1
:102DC00000133362224605211F2000F011FD1F2051
:102DD00000F040FD22460521202000F009FD2020C2
:102DE00000F038FD284601F0AFFE08B070BD00BF0E
:102DF0007C11002000540040801A06000038024078
:102E00000004024008B5034801F046FFBDE8084051
:102E1000FFF790BF7C11002010B586B0194B00243D
:102E200000941A6B42F001021A631B6B03F001035A
:102E30000093009B69B90123CDE90131022304937A
:102E4000114B039153F8200001A901F005FB06B0D6
:102E500010BD0129FBD1022304934FF48813029380
:102E6000094B019153F82000039401A901F0F4FAF1
:102E700022460F21062000F0BBFC062000F0EAFCF1
:102E8000E5E700BF003802404800002008B5034BCA
:102E9000012153F8200001F067FC08BD4800002024
:102EA000FFF748BF7FB501238DF817206422CDE9D5
:102EB00001320DF1170200920A460146044801F062
:102EC00005FF08B1FFF79EFF07B05DF804FB00BFE8
:102ED0007C1100207FB500230A468DF817304FF48F
:102EE0007A710123CDE901310DF1170100910146FD
:102EF000054801F07BFF08B1FFF784FF9DF817003C
:102F000007B05DF804FB00BF7C1100201FB54FF433
:102F10007A74CDE90134009201230A46014605483E
:102F200001F064FF044608B1FFF76CFFA0B204B0E3
:102F300010BD00BF7C11002000F034BC00B595B07E
:102F40004FF480720C924FF08071052206920F911F
:102F500000220121CDE90312CDE90D22CDE9112294
:102F60000B9213920092102202924FF480020346B9
:102F70000191059206A96A46044802F0C2FB003896
:102F800018BF012015B05DF804FB00BFB8A50020F4
:102F900000B595B04FF480730C9306230693174841
:102FA000002341F2883206A9CDE90D33CDE9113372
:102FB0000F930B93139302F060FBE0B90223CDE96A
:102FC000003301221023CDE902324FF480010523A2
:102FD000CDE905134FF0807304900F93074841F239
:102FE00088336A4606A902F08CFB003818BF01201E
:102FF00015B05DF804FB0120FAE700BFB8A500207A
:1030000000B591B04FF480730893EB2302934FF413
:10301000406309934FF4005305934FF0407200232F
:10302000CDE90A320A22079202A96A4606480F939E
:10303000CDE90D33019302F0B4FB003818BF012035
:1030400011B05DF804FB00BFB8A5002070B588B0D2
:103050002C4B2D48002400949A6B42F002029A6394
:103060009A6B02F002020092009A9A6942F0020200
:103070009A619A6922F002029A6101941A6B42F0F5
:1030800002021A631A6B02F002020192019A029480
:103090001A6B42F020021A631B6B03F020030293A9
:1030A0004022029B0223CDE9032301210323CDE922
:1030B00005130A2603A90925079601F0CDF94FF457
:1030C000806303A9114803930594079501F0C4F99F
:1030D0004FF4407303A90D480393079601F0BCF920
:1030E000C02303A909480393079501F0B5F92246C7
:1030F0000F215B2000F07CFB5B2000F0ABFB08B0F5
:1031000070BD00BF003802400004024000140240BD
:10311000F0B5484C484B236091B0204602F09AFA33
:10312000054610B1012011B0F0BD01462046FFF761
:103130008DFF01261023C4E90166E3604FF080771C
:1031400097FAA7F3B3FA83F3013B236120464FF4C8
:103150008063C4E90535C4E9075502F027FA002861
:10316000E0D1CDE90900CDE90D004FF4807566236B
:103170000B9007900F9041F2883202A920460895E3
:10318000029302F07AFA08B10420CCE7992341F2C5
:10319000883202A92046029302F06FFA0028F3D188
:1031A00041F28830FFF7CAFE0028EDD1CDE90900D1
:1031B000CDE90C60CDE90E008523079041F28832FD
:1031C00002A92046089502930B9702F056FA0028B0
:1031D000DAD141F288320DF10701204602F0C0FB3E
:1031E0000028D1D1FFF7D4FE0028CDD1812302934E
:1031F000F02292FAA2F29DF807300A21B2FA82F286
:1032000001FA02F203F00F03134302A941F28832DC
:1032100020468DF8073002F030FA0028B4D141F290
:1032200088320DF10701204602F03EFB00283FF4F2
:103230007AAFA9E7B8A50020001000A008B55B2070
:1032400000F016FB1448402101F0ECF913484FF44C
:10325000806101F0E7F911484FF4807101F0E2F963
:103260000E484FF4007101F0DDF90C48802101F0A7
:10327000D9F90A48402101F0D5F9094B9A6942F081
:1032800002029A619A6922F002029A619A6B22F014
:1032900002029A6308BD00BF00040240001402400D
:1032A0000038024038B5084D084B2B60284602F024
:1032B000D1F9044628B901462846FFF7BFFF20464A
:1032C00038BD0124FBE700BFB8A50020001000A016
:1032D0002DE9F743214C224D01264FF0000810271D
:1032E000214681464FF6FF722846C4E90067C4E9CB
:1032F0000268CDF8048002F0D3FF304600F052FAA5
:10330000022321464FF6FF722846C4E90037C4E97C
:10331000026802F0C5FF0323C4E9003721460823F1
:103320004FF6FF722846C4E9023802F0B9FF4FF4A5
:103330000C7301930423C4E900372146019BA66066
:103340004FF6FF722846E36002F0AAFF494628467E
:1033500003B0BDE8F04302F0BABF00BFD0110020B7
:10336000BC12002070B506468EB0002800F0BD806B
:103370005F4B6048604C002500959A6B42F001025B
:103380009A639A6B02F001020092009A01951A6BFF
:1033900042F480021A631A6B02F480020192019ACD
:1033A00002951A6B42F004021A631A6B02F00402CF
:1033B0000292029A03951A6B42F008021A631A6B82
:1033C00002F008020392039A04951A6B42F010026D
:1033D0001A631A6B02F010020492049A05951A6B94
:1033E00042F020021A631A6B02F020020592059A3D
:1033F00006951A6B42F040021A631A6B02F0400203
:103400000692069A07951A6B42F080021A631A6BAD
:1034100002F080020792079A08951A6B42F48072B4
:103420001A631B6B03F4807308930222089B0C92AF
:103430000123CDE90A2309A90C220D92099301F079
:103440000BF84CF203732D48099309A901F004F815
:103450004FF683732A48099309A900F0FDFF4FF640
:103460003F032848099309A900F0F6FF48F23313F7
:103470002548099309A900F0EFFF4FF60C73234884
:10348000099309A900F0E8FF40F2FF63204809937F
:1034900009A900F0E1FF80224FF40073C4E9022380
:1034A0004FF480614FF48053C4E904134FF4804318
:1034B000C4E906354FF40033C4E908350323C4E9F1
:1034C0000A352563134B3463204623606560A66389
:1034D00000F088FA204600F005FA38202A46052137
:1034E00000F086F9382000F0B5F90EB070BD00BFCD
:1034F0000038024000080240FC110020000C02408D
:10350000001002400014024000180240001C02405B
:10351000002002401064024038B5194C194D1A4B76
:103520002360072102230422C5E90031C5E90221F5
:10353000C5E90433AB61E26040232022C4E90423DF
:1035400000214FF4C073C4E906314FF400604FF41A
:103550008053C4E908032046C4E90111A162FFF7C2
:1035600001FF2946204602F06DFE084C003818BFC6
:103570000120207040F26950FFF7AAFE207838BD84
:10358000BC120020E0110020400100A04C000020EF
:1035900008B548B1382000F06BF90448044B0360CB
:1035A000BDE8084000F01EBA08BD00BF5C12002054
:1035B0001064024038B5074C074B2360204602F0E8
:1035C00061FE064D014618B928702046FFF7E0FF5E
:1035D000287838BDBC120020400100A04D0000201A
:1035E0002DE9F843194DDFF870802B68044698F8F0
:1035F00000000F4698476B6854209847C0B21128C6
:103600004646A9460BD06B6870209847C0B270231D
:10361000112888F8003005D00320BDE8F883542332
:1036200088F800300A4B0B4D3078C5F80090BC424A
:1036300034BF01210C211970D9F8083098472B6844
:103640003078DB6898470020E7E700BF20000020C3
:103650000813002004130020F01200202DE9F04F81
:10366000344C354D236885B006461B692878984749
:10367000A1463070019558B1DFF8C8802F4F06F190
:10368000020B03AD02A94FF0000A3378534503D86B
:10369000002005B0BDE8F08FD9F8003001985B69D3
:1036A000007800912A469847254B00991B7813F023
:1036B000080F1FBF0A88288808802A809A0741BF00
:1036C0000A88C2F5477203320A805B0748BF2B881D
:1036D000D8F8002031F8020B42BFC3F5EF73013375
:1036E0002B8093B290428CBFC31A1B1A9BB235F841
:1036F000022B00933B689CB29A4288BF141B009B2C
:1037000098BFA41AA4B21C44C446052CC8BFC8F86C
:103710000000DCF80030C8BF3A60BE462BF8023B20
:10372000DEF80030ABF8023008F1040804370AF183
:10373000010AAAE704130020F0120020FC12002066
:1037400008130020F4120020054BD3F8882042F41F
:103750007002C3F888204FF000629A60704700BF83
:1037600000ED00E008B50B4B1A6842F400721A60D5
:103770001A6842F480621A601A6842F480721A6011
:10378000032000F023F80020FEF750FBFEF7F0F8CE
:10379000002008BD003C0240014B1868704700BF84
:1037A00004A6002038B50446FFF7F6FF631C1CBFD3
:1037B000054B1B78054618BFE418FFF7EDFF431BC8
:1037C000A342FAD338BD00BF540000200749CA689D
:1037D00022F4E0620302120403F4E063120C1343C8
:1037E00043F0BF6343F40033CB60704700ED00E06B
:1037F000164B30B5DC68C4F30224C4F10705231D61
:10380000042D28BF0425062B4FF0FF338CBF033C4B
:10381000002403FA05F521EA0501A34022EA030288
:10382000A140002841EA0203ACBF00F16040084A11
:103830004FEA0313B8BF00F00F00DBB2AABF00F5D8
:103840006140135480F8003330BD00BF00ED00E04C
:1038500014ED00E0002808DB4209012300F01F00FE
:1038600003FA00F0014B43F82200704700E100E04A
:1038700000280DDB4309012200F01F0002FA00F0CE
:103880002033044A42F82300BFF34F8FBFF36F8FFA
:10389000704700BF00E100E010B5044650B1437925
:1038A00003F0FF0213B90271FEF782F8012363717E
:1038B000002010BD0120FCE7036810B5084C02464B
:1038C000D9B210391820B1FBF0F0205CD06523F498
:1038D0007F7020F003005F2988BF0430906510BD21
:1038E00045B5010870B50446FFF756FF0546002CA4
:1038F00073D0022384F835302268002384F83430F2
:10390000136823F00103136021680B68D8072FD4D4
:103910000B68334DA0691D40D4E901231343E268CD
:1039200013432269134362691343E2690343134358
:10393000226A1343626A042A43EA050302BFD4E9F8
:103940000B5635432B430B604B69042A23F00703C6
:1039500043EA020333D1A26AE56A13437DB390B907
:10396000012A21D032F0020229D1EA0127D51EE036
:10397000FFF712FF401B0528C6D9202363650320EB
:1039800084F8350070BDB0F5005F14D1032A16D855
:1039900001A050F822F000BFAF3900086B390008D1
:1039A000AF390008A9390008B5F1C07F07D140231D
:1039B00063650120E4E7022AF9D9032AD5D04B61D7
:1039C0002046FFF779FFE26D3F239340836000209C
:1039D0000123606584F83530D4E70120D2E700BFC9
:1039E0003F8010F038B5054620B390F83530022BF3
:1039F000DCB21DD003681A6822F0010200241A60AC
:103A000021221C605C609C60DC601C615A61FFF7D5
:103A100053FFEA6D3F239340C5E90F44C5E91144C4
:103A2000C5E9134483606C6585F8344085F83540FA
:103A3000204638BD0124FBE770B50446866DFFF7CC
:103A4000ABFE94F83530022B054606D08023636523
:103A5000002384F83430012070BD23681A6822F0F6
:103A600016021A605A6922F080025A61226C0AB961
:103A7000A26C1AB11A6822F008021A601A6822F0C1
:103A800001021A6023681B6813F001030AD1E16D7B
:103A90003F228A40B260012284F8352084F8343015
:103AA0001846D9E7FFF778FE401B0528EAD92023FE
:103AB00063650320002384F8350084F83430CBE7B5
:103AC00010B5044630B390F8393003F0FF021BB94B
:103AD00080F83820FDF784FF22686168022384F8AB
:103AE0003930136823F440330B431360536BA168E0
:103AF00023F007030B435363136CE16823F47F53F4
:103B000023F03F030B43136400200123E06384F898
:103B1000393010BD0120FCE770477047036870B56D
:103B20005E681D68F207044614D5E90512D51A68C7
:103B300022F480721A60C26B42F00102C263012259
:103B40009A60042380F83930002380F838304369C4
:103B500003B19847B20616D5AB0414D523681A688A
:103B600022F400521A6020229A60E36B43F00203B1
:103B7000E363042384F83930002384F83830636920
:103B80000BB120469847300716D5290514D5236870
:103B90001A6822F400621A6008229A60E36B43F00C
:103BA0000403E363042384F83930002384F83830B5
:103BB00063690BB12046984772070BD56B0509D591
:103BC00023681A6822F480621A6004229A602046F0
:103BD000FFF7A2FFB00714D5A90512D523681A680C
:103BE00022F400721A6002229A60E36BE3630123FD
:103BF00084F83930002384F8383023690BB120462B
:103C00009847F20613D5EB0411D523681A6822F4FD
:103C100080521A6010229A60E36BE363012384F8F8
:103C20003930002384F838302046FFF776FF70BD26
:103C3000F0B590F83830012B4FF002032BD0012261
:103C400080F8393080F8382000EB0113D3E90742BF
:103C50005D6A184F44EA0242093C012C9CBF05F002
:103C60007F431A434FEA0116036888BF42EA0562A0
:103C700099B9596A39400A435A62012C82699A619A
:103C800003D8426A22F07F429A62012380F83930D9
:103C9000002380F838301846F0BDD96939400A430E
:103CA000DA618219012C92691A619CBF25F07F4567
:103CB0001D62EAE7F0FFFC002DE9F04107460D46E2
:103CC00014461E46FFF768FD80463A68536FDB07CF
:103CD0000AD544EA0623069C43EA044444EA8514D0
:103CE000D4660020BDE8F081FFF756FDA0EB080088
:103CF000B0F57A7FE9D90320F4E7037C012B5DD08E
:103D000003680022C3F8C420C3F8C820CA0748BF0C
:103D1000D3F8C420816142BF6FEA12426FEA0242C7
:103D2000C3F8C4208A0742BFD3F8C42042F4F81273
:103D3000C3F8C4204A0742BFD3F8C82042F00102AA
:103D4000C3F8C8200A0742BFD3F8C82042F00202D5
:103D5000C3F8C820CA0642BFD3F8C82042F00C02FC
:103D6000C3F8C8208A0642BFD3F8C82042F0100228
:103D7000C3F8C8204A0642BFD3F8C82042F0200248
:103D8000C3F8C8200A0642BFD3F8C82042F0400258
:103D9000C3F8C820CA0542BFD3F8C82042F0800249
:103DA000C3F8C8208A0542BFD3F8C82042F4F852AD
:103DB000C3F8C820002303741846704702207047D8
:103DC00073B50D460446002800F0A780437C0BB96C
:103DD000FDF728FE03236374002300932368D3F8C0
:103DE000302442F08072C3F83024D3F8303403F02A
:103DF00080730093009BFFF7CFFC06462268D2F841
:103E00000C34D90478D5D2F8303423F45E3323F45B
:103E1000FE73C2F83034D5E90003DB0243EA8003C5
:103E2000A868D2F8301443EA00430B43C2F8303498
:103E300000230193D2F8303443F00103C2F8303448
:103E4000D2F8303403F001030193019BFFF7A4FC87
:103E500006462368D3F80C24D20557D5D3F8A02002
:103E60006168286842F00602C3F8A020D3F89420C5
:103E700022F00302C3F89420D3F894200A4342F0BE
:103E80000102C3F89420D3F8A420E16822F00302D1
:103E9000C3F8A420D3F8A4200A43C3F8A4209A6846
:103EA000A16822F0FF029A609A680A439A606A68E1
:103EB000012A38BF01221146194A4A43A96801F074
:103EC00003018A404FF4FA514143B2FBF1F2D3F8B7
:103ED000181421F03F01C3F81814D3F81814002067
:103EE0000A43C3F81824C3F8C400C3F8C800012368
:103EF0006061A061637407E0FFF74EFC801BB0F5C2
:103F00007A7F7FF67BAF032002B070BDFFF744FCE1
:103F1000801BB0F57A7F9CD9F5E70120F4E700BF5C
:103F200000093D0070470368D3F80C24D10710B591
:103F3000044608D5D3F80824D20704D50122C3F8D3
:103F40001024FCF7BDFD2368D3F80C24910709D594
:103F5000D3F80824920705D50222C3F8102420467E
:103F6000FCF7E2FDA369002B4ED02168D1F8BC20FC
:103F7000D1F8C430D1F8C0001A40D1F8C83091B29D
:103F8000034019B1616941F00101616112F4F81F48
:103F90001EBF626942F002026261D80742BF6269D5
:103FA00042F004026261990742BF626942F008026E
:103FB000626113F00C0F1EBF626942F01002626171
:103FC000DA0642BF626942F020026261980642BF8F
:103FD000626942F040026261590642BF626942F082
:103FE000800262611A0642BF626942F480726261B5
:103FF00013F4F85F1EBF636943F400736361636980
:1040000013B12046FFF78EFF10BD037C012B0BD0B0
:1040100003681A6B22F003021A631A6B11431963C7
:1040200000230374184670470220704730B5037CA4
:10403000012B6AD003680C685A6B42F001025A6384
:10404000D3F8002422F00102C3F80024D3F800249E
:1040500042F00102C3F80024DA6822F00302DA60B9
:10406000DA682243DA605A6922F007025A61D1E91C
:1040700006522A434D695C692A4322435A611A69F0
:104080004D6822F00F021A611C692C431C61D3F8A1
:10409000004424F00E04C3F80044D3F800248C68D4
:1040A00042EA4502C3F800245A6E120C12045A6602
:1040B0005A6E22435A66D3F8002422F0F002C3F865
:1040C0000024D1E903252A434D6AD3F800442A434A
:1040D0000D6A896A2A432243C3F800249A6E22F0AB
:1040E00001029A669A6E0A439A66D3F8082442F04F
:1040F0000102C3F80824D3F8082442F00202C3F8EE
:10410000082400230374184630BD0220FCE7000099
:1041100030B5037C012B2AD00268164B946E2340E5
:104120009366D1E900352B438D68946E2B43CD689F
:104130002B430D692B434D692B438D692B43CD696F
:104140002B430D6A2B434D6A2B438D6A2B43CD6A5B
:10415000096B2B4323439366936E23F0020393660C
:10416000936E0B43936600230374184630BD022000
:10417000FCE700BFFF80F0FE037C012B0BD003683F
:10418000DA6A22F01F02DA62DA6A1143D962002386
:104190000374184670470220704730B5037C012B2A
:1041A00035D0D1E900240368944238BF1446D3F8CF
:1041B000982002F0FC22C3F89820D3F8982042EA15
:1041C00004422243C3F89820D3F89C2002F4004212
:1041D000C3F89C20D1E90225120642EA05420D6986
:1041E000D3F89C4049692A432243C3F89C20D3F862
:1041F000A42022F47F42C3F8A420D3F8A42042EAEA
:104200000122C3F8A42000230374184630BD022005
:10421000FCE7000030B5037C012B5CD003680C6820
:104220009A688D6822F47F429A609A6842EA042272
:104230009A609A6F4C6892B29A679A6F42EA044207
:104240009A679C6F254A14409C679C6F2C439C671F
:10425000DC6FCD681440DC67DC6F2C43DC67D3F87F
:1042600080400D691440C3F88040D3F880402C434F
:10427000C3F88040D3F884404D691440C3F88440AB
:10428000D3F884402C43C3F88440D3F8844024F00E
:104290008074C3F88440D3F884408D692C43C3F8FC
:1042A0008440D3F88840CD69096A1440C3F8884037
:1042B000D3F888402C43C3F88840D3F88C40224080
:1042C000C3F88C20D3F88C200A43C3F88C20002339
:1042D0000374184630BD0220FCE700BF0000FFFF5A
:1042E000037C012B82B01CD002680023009351682C
:1042F00041F001015160516801F001010091009904
:104300000193D2F8041441F00801C2F80414D2F861
:104310000424037402F008020192019A184602B0C4
:1043200070470220FBE7037C012B1FBF0268D2F815
:10433000043443F00403C2F804341DBF00230374A3
:1043400018460220704737B5057C012D044609D078
:1043500001250574069D0095FFF7AEFC002323742C
:1043600003B030BD0220FBE72DE9F84F1C46037C6B
:10437000012BDDE90A9806460F46154653D0012366
:104380000374FFF709FA83463268536F13F0010A8A
:104390001AD0032C21464FF0000028BF0321884289
:1043A0001ED1231AC2F8709040441BBB013445EA69
:1043B00087112502ADB224020D4304F47F042C437F
:1043C000D4661846337409E0FFF7E6F9A0EB0B005A
:1043D000B0F57A7FD8D986F810A00320BDE8F88F11
:1043E00018F8003001304FEAC00C03FA0CF349EA28
:1043F0000309D4E7042B4FF0000C9E46614628BF0A
:104400004FF0040E10F801804FEAC109013108FA9B
:1044100009F88E454CEA080CF4D1C2F870C0A3EB41
:104420000E037044C1E70220D8E7037C012B10D0B3
:104430000368D3F81C2422F0C062C3F81C24D3F80C
:104440001C2442EA4161C3F81C140023037418467B
:1044500070470220704700002DE9F74FDFF8C09148
:104460006D4A00230D6801249C4004EA050CAC430E
:1044700040F0B9804D6805F003044FEA4308032675
:10448000671E06FA08F6012F6FEA060634D8876819
:1044900007EA060ECF6807FA08F747EA0E078760B3
:1044A000476827EA0C0EC5F300179F4047EA0E073E
:1044B0004760C76807EA060E8F6807FA08F747EAF9
:1044C0000E07022CC76019D14FEAD30A00EB8A0A03
:1044D00003F0070BDAF820704FEA8B0B4FF00F0E4A
:1044E0000EFA0BFE27EA0E0E0F6907FA0BF747EAE2
:1044F0000E07CAF8207001E0032CDAD1076804FA2D
:1045000008F43E40264315F4403F06606BD04FF060
:10451000000ACDF804A0D9F84460404C46F4804627
:10452000C9F84460D9F8446006F480460196019EBB
:1045300023F0030606F1804606F59C3603F0030ED1
:10454000D6F808804FEA8E0E0F2707FA0EF7A04222
:1045500028EA07074ED004F58064A0424CD004F549
:104560008064A0424AD004F58064A04248D004F59B
:104570008064A04246D004F58064A04244D004F593
:104580008064A04242D004F58064A04240D004F58B
:104590008064A0423ED004F58064A0420CBF092490
:1045A0000A2404FA0EF43C43B46014686FEA0C0663
:1045B000EF0354BF34404CEA040414605468AF0362
:1045C00054BF34404CEA040454609468EF0254BF72
:1045D00034404CEA04049460D468AD0254BF3440C3
:1045E0004CEA0404D4600133102B7FF43BAF03B0DA
:1045F000BDE8F08F5446D4E70124D2E70224D0E787
:104600000324CEE70424CCE70524CAE70624C8E740
:104610000724C6E70824C4E7003C0140000002402C
:10462000003802402DE9F04F4A4CDFF83091DFF8B6
:1046300030A1DFF830B10022012303FA02FE3EEA86
:1046400001030EEA01076ED122F0030505F1804552
:1046500005F59C35404BD5F8088002F0030C4FEA75
:104660008C0C0F2606FA0CF6984206EA08085FD072
:1046700003F5806398425DD003F5806398425BD078
:1046800003F58063984259D003F58063984257D070
:10469000484557D0504557D0584557D003F580531B
:1046A000984255D003F5806398420CBF09230A2332
:1046B00003FA0CF3434513D1236823EA070323606D
:1046C000636823EA07036360A36823EA0703A36020
:1046D000E36823EA0707E760AB6823EA0606AE60F3
:1046E00005680326530006FA03F325EA030505606F
:1046F00022FA06F500EB850502F0070C2E6A4FEA58
:104700008C0C0F2707FA0CF726EA07072F62C568FB
:1047100025EA0305C560456825EA0E0545608568FC
:1047200025EA030383600132102A85D1BDE8F08FAA
:104730000023BDE70123BBE70223B9E70323B7E763
:104740000423B5E70523B3E70623B1E70723AFE763
:104750000823ADE7003C0140000002400014024085
:1047600000180240001C02400369194214BF0120D6
:10477000002070470AB1816170470904FBE7436973
:1047800001EA030221EA030141EA02418161704723
:1047900001684B6913F480634FF0000210D06FF48E
:1047A00080634B612023026380F83D3080F83E2017
:1047B000036C80F83C2043F004030364012070473D
:1047C000184670472DE9F04104460F4616469846B4
:1047D0002568686927EA000080B2B8B16B695A059C
:1047E00016D52B6843F400732B606FF480636B6104
:1047F00020220023236384F83D2084F83E30226C7D
:1048000042F00402226484F83C300120BDE8F081CB
:10481000731CDED0FEF7C0FFA0EB0800B04201D849
:10482000002ED5D100232022236384F83D2084F874
:104830003E30226C42F02002E4E770B504460D469B
:10484000164623685B695B0701D5002070BD2046D2
:10485000FFF79EFFA8B96A1CF3D0FEF79DFF801BEF
:10486000A84201D8002DECD100232022236384F834
:104870003D2084F83E30226C84F83C3042F0200227
:1048800022640120E2E770B504460D461646216811
:104890004B6913F0400301D0002010E04A69D206B2
:1048A0000ED56FF010024A612022236384F83D2068
:1048B00084F83E30226C226484F83C30012070BDC4
:1048C000FEF76AFF801BA84201D8002DDFD100232C
:1048D0002022236384F83D2084F83E30226C42F08D
:1048E0002002E8E72DE9F84606460F4691461D46A8
:1048F0004FEA114A3368BAF1010F0CBF5C699C6939
:1049000027EA0404A4B2B4FA84F46409A14501D0EE
:10491000002017E06A1CEED0FEF73EFF089BC01A8D
:10492000A84201D8002DE5D100232022336386F868
:104930003D2086F83E30326C86F83C3042F0200252
:1049400032640120BDE8F88670B504460D4616466F
:1049500023685B691B0601D5002070BD2046FFF768
:1049600017FFA8B96A1CF3D0FEF716FF801BA842F8
:1049700001D8002DECD100232022236384F83D20B0
:1049800084F83E30226C84F83C3042F020022264ED
:104990000120E2E72DE9F0431546026885B0DDE924
:1049A0000C789946136843F4807313600E463B46B7
:1049B000CDF8008000224FF001110446FFF792FF6E
:1049C000236838B11B68DB0502D54FF400732364FC
:1049D00003200AE006F0FE061E61194943463A46E6
:1049E0002046FFF7EFFE18B1012005B0BDE8F083C7
:1049F000236803905A6903929B69039342463946A0
:104A00002046039BFFF7A0FF40B1236C042B01BF9E
:104A10002268136843F400731360E5E7B9F1010FEE
:104A2000236802D1EDB21D61DFE72A0A1A61394617
:104A300042462046FFF788FF0028E6D12368F1E7C9
:104A4000020001002DE9FF479A46036815461A68DF
:104A500042F480621A601A68DDE90C7842F48072D0
:104A60001A600E463B46CDF8008000224FF001113F
:104A70000446FFF737FF236848B11B68DB0502D502
:104A80004FF400732364032004B0BDE8F0875FFA9D
:104A900086F906F0FE061E612A4943463A4620463C
:104AA000FFF790FE08B10120EEE7236803905A69F2
:104AB00003929B690393424639462046039BFFF7C6
:104AC00043FF40B1236C042B01BF2268136843F4F9
:104AD00000731360E7E7BAF1010F23681AD1EDB252
:104AE0001D61424639462046FFF72EFF0028E9D1D6
:104AF0002268136843F4807313604FF0011102467B
:104B0000CDF800803B462046FFF7ECFE226860B1FE
:104B10001368B3E72A0A1A61394642462046FFF76E
:104B200013FF0028CED12368D9E749F001031361B0
:104B3000044943463A462046FFF744FE003818BF72
:104B40000120A1E70200010070B5044608B9012068
:104B500070BD90F83D3003F0FF021BB980F83C2097
:104B6000FCF79EFF242384F83D3023681A6822F066
:104B700001021A601A6842F400421A601A6822F4AC
:104B800000421A6001F018F83F4A6368934294BFEC
:104B90003E4A3F4A90428CBF00220122002AD6D1D1
:104BA00021683C4E4A68B0FBF6F622F03F023243E1
:104BB0004A60354A0D6A934284BF4FF4967272433D
:104BC00025F03F0591BF721C4FF47A76B2FBF6F2E6
:104BD00001322A430A62CD69421E2B4825F44F4513
:104BE000834225F0FF0532D85B00B2FBF3F340F6B9
:104BF000FC720133134242D0C3F30B032B43CB614E
:104C0000D4E907300A68034322F0C00213430B6063
:104C10008A68D4E9030322F40342034322F0FF022B
:104C200013438B60D4E90530CA68034322F0FF02C6
:104C30001343CB600B6843F001030B60002020237B
:104C4000206484F83D30206384F83E0080E7A0684B
:104C500050B903EB4303B2FBF3F30133C3F30B038C
:104C60007BB143F40043C9E719204343B2FBF3F39C
:104C70000133C3F30B0323B143F44043BEE70423E2
:104C8000BCE70123BAE700BFA08601007F841E00B5
:104C9000FF083D0040420F0010B5044698B102687D
:104CA000242380F83D30136823F001031360FCF7E0
:104CB0003BFF0020206484F83C0084F83D00206322
:104CC00084F83E0010BD0120FCE700002DE9F74309
:104CD000044699460C9E0F469046FEF75DFD94F8FB
:104CE0003D30202B054603D0022003B0BDE8F08301
:104CF00000903C49192301222046FFF7F3FD0028CC
:104D0000F2D194F83C30012BEED02068012384F8D6
:104D10003C300368D9075EBF036843F001030360BA
:104D2000036823F400630360212384F83D304023AB
:104D300084F83E30002323640A9B6362BDF82C3064
:104D40006385638D2385284BE362CDE900654B467F
:104D5000424639462046FFF71DFE00282AD0012092
:104D6000C3E7FFF7F1FD40B1236C042B01BF2268BC
:104D7000136843F400731360F1E7636A27681A4607
:104D800012F8011B39616262628D218D013A92B283
:104D900062857A69481E80B2520720850AD548B1DB
:104DA0005A783A6102336362638D013B02399BB2E8
:104DB00021856385238D2A4631462046002BD0D19C
:104DC000FFF73BFD0028CFD12268136843F400733E
:104DD0001360202384F83D3084F83C0084F83E00C2
:104DE00083E700BF020010000000FFFF2DE9F04341
:104DF000044687B09946109F0D469046FEF7CCFCBE
:104E000094F83D30202B064604D00225284607B0F2
:104E1000BDE8F08300907649192301222046FFF770
:104E200061FD0028F1D194F83C30012BEDD02068D1
:104E3000012384F83C300368DB075EBF036843F05E
:104E400001030360036823F400630360222384F8F2
:104E50003D30402384F83E30002323640E9B636280
:104E6000BDF83C306385638D2385624BE362294640
:104E7000CDE900764B4642462046FFF7E3FD054666
:104E800008B10125C2E7228D2368B2B902905A69A0
:104E900002929A690292029A1A6842F400721A60A7
:104EA000DFF85481238D002B2CD1202284F83D2063
:104EB00084F83C3084F83E30A8E7012A0AD11A6809
:104EC00022F480621A6003905A6903929A690392ED
:104ED000039AE1E7022A0ED11A6822F480621A606E
:104EE0001A6842F400621A6004905A6904929B693D
:104EF0000493049BD4E705905A6905929B69059336
:104F0000059BCDE7032B56D8012B15D132463946E8
:104F10002046FFF7B8FC0028B3D123681A69636AFA
:104F20001A70636A01336362238D013B2385638DAD
:104F3000013B9BB26385B5E7022B00963B464FF0E1
:104F400000024146204619D1FFF7CCFC002898D139
:104F500023681A6842F400721A601A69636A1A7048
:104F6000626A531C6362238D013B2385638D013B81
:104F70009BB2638523681B695370D2E7FFF7B2FCCD
:104F800000287FF47EAF23681A6822F480621A60DA
:104F90001A69636A1A70636A009601336362238D2B
:104FA000013B2385638D013B9BB2638502463B46F3
:104FB00041462046C8E7324639462046FFF763FCA3
:104FC00000287FF45EAF23681A69636A1A70626A08
:104FD000531C6362238D013B2385638D013B9BB290
:104FE00063852368596949077FF55CAFC3E700BF54
:104FF000020010000000FFFF0400010090F83D00D7
:1050000070472DE9F043D20104684F68E568D1F894
:1050100000C0D1F818908432A3180CF1010658682A
:1050200000F470405860E068C5F30B45C0F30B40D6
:1050300030443D4440EA05405860E068CD68C0F324
:105040000A000544986800F470409860E668886833
:10505000C6F30A060130304440EA054098601869FA
:105060000E6920F0070018614FF0000E1E619D6967
:1050700091F8320091F83180C3F818E091F830507F
:1050800045EA096545EA082545EA00459D615869F4
:1050900020F0FF00586148695861D86920F4E06049
:1050A00020F00700D861D1E907500543DD61986A17
:1050B000486AC3F828E098621EB3012E23D0B01EC0
:1050C000022822D9072E0CBF02200120DD6A05F03C
:1050D000E025DD628D6AC96AA7EB0C07454378437A
:1050E000033040EA0540D862186B20F4FF6020F0DE
:1050F000070018631963A35843F00103A350BDE8E8
:10510000F0830420E2E70320E0E70220DEE700006E
:1051100038B50446002863D090F8A13003F0FF02B0
:105120001BB980F8A020FCF71DFD022384F8A130F4
:1051300023689A6922F070429A61D4E901200243FF
:10514000E06899690243206902430A439A619A68B8
:10515000244960690A409A609A6842EA0042A0695C
:1051600002439A60DA68E0690A40DA60DA6842EA83
:105170000042206A0243DA601A69606A0A401A61D2
:105180001A6942EA0042A06A02431A615A69114050
:1051900059615A69E16A42EA0142216B0A435A6144
:1051A000D96A94F8360094F8355001F07F41D962FD
:1051B000D96A94F834200A4342EA052242EA0042BE
:1051C000DA625A6B42F006025A639A6942F00102AF
:1051D0009A6100200123C4F8A40084F8A13038BDEE
:1051E0000120FCE700F800F0704770477047036843
:1051F00070B59E6B5D6B7207044614D5690712D5B6
:105200005A6B22F004025A630422DA63D0F8A43005
:1052100043F00103C0F8A430002380F8A12080F8F7
:10522000A030FFF7E1FFB20716D5AB0714D523680E
:105230005A6B22F002025A630222DA63D4F8A430D5
:105240001343C4F8A430042384F8A130002384F865
:10525000A0302046FFF7C8FFF00710D5E9070ED5AC
:1052600023685A6B22F001025A630122DA63002399
:1052700084F8A12084F8A0302046FFF7B6FF32075B
:1052800011D52B070FD523685A6B22F008025A63F9
:105290000822DA63012384F8A130002384F8A030C7
:1052A0002046FFF7A3FF70BD2DE9F04190F8A03034
:1052B000012B06460F4694464FF002001FD04FF0D8
:1052C000010886F8A08086F8A10034240D4604FB6E
:1052D00002640FCD38340FC40FCD0FC40FCD0FC4EF
:1052E0002B682360304662463946FFF78AFE3368F2
:1052F0000020C3F8248086F8A18086F8A000BDE8CD
:10530000F081000030B590F8A030012B4FF002037F
:105310002CD0342404FB020480F8A130A46C3CB3EC
:10532000012C27D0A51E9D4202D9072C18BF0123AE
:105330000468D201843222444B43D46A24F0FF54DF
:1053400024F4F814D4620C4C656A45F001056562DA
:10535000D56A45EA0343D362636A43F0010363629B
:10536000012380F8A130002380F8A030184630BD1A
:105370000423DDE70323DBE70068014037B50023A2
:105380000193184B184D1A6C42F080521A641B6C32
:1053900003F080530193019B144B01221A60FEF726
:1053A000FBF904466B68DA030BD5114B0E4D012255
:1053B0001A60FEF7F1F904466B689B030AD50020DA
:1053C00006E0FEF7E9F9001BB0F57A7FEAD9032081
:1053D00003B030BDFEF7E0F9001BB0F57A7FEBD9E2
:1053E000F5E700BF003802400070004040000E4268
:1053F00044000E422DE9F0474E6A3EB1B2F1406FD3
:105400001FBF8B6A046803F1FF332361D1F818A032
:10541000D1E9077CBAF1000F4ED04B690568D1F88D
:105420000080486B46EA0A0AD1E90B494FEA834EED
:105430004AEA020ABCF1000F26D08B680E69EB61C4
:105440004CEA0A0CA7B148EA0703234343EA0903DD
:105450000343C8683343034343EA0E0343EA0C03A0
:10546000B2F1406F6B6101D04B68AB61BDE8F08772
:1054700048EA040343EA09030343334343EA0E03C0
:1054800043EA0C036B61F1E767B148EA0703234382
:1054900043EA09030343C868034343EA0E0343EAAC
:1054A0000A03DDE748EA040343EA0903034343EA46
:1054B0000E0343EA0A03E5E7BCF1000F28D00468B5
:1054C0008B68E36146EA0C034E690869D1F834C081
:1054D00043EA0205B604D1E90B8387B1384340EAB9
:1054E00008000343C86843EA0C03034333432B43D8
:1054F000B2F1406F6361B9D04B68A361B6E740EA8F
:105500000800034343EA0C0333432B436361ADE7D5
:10551000AFB1CC6A006846EA0703134323430C6B20
:1055200023434C6B2343CC6823434C69B2F1406F57
:1055300043EA8443436199D04B68836196E7002E28
:1055400094D0CB6A006833430E6B1A4332434E6BE0
:105550004B69324342EA8342426187E72DE9F041D9
:10556000DDF8188004460E4615461F4622689368EB
:10557000334214BF01230023AB4201D1002012E0CB
:10558000B8F1FF3FF3D0FEF707F9C01B404502D842
:10559000B8F1000FEAD1042384F84130636C43F082
:1055A000010363640120BDE8F081000030B585B0DF
:1055B0000446FEF7F1F80346002C47D094F841204A
:1055C00002F0FF014AB9039084F840102046FCF72E
:1055D000FDFA41F28832039BA2642068A168026848
:1055E000013922F4F85242EA01220260A26C0092D0
:1055F000202100222046FFF7B1FF10BBE569E368D8
:1056000022682B43256A11682B43656821F07F418E
:1056100043EA056321F0D0010B431360D4E905315F
:105620000B432169556843EA0143094929400B436B
:105630005360136843F0010313600123606484F82E
:105640004130002384F8403005B030BD0120FBE735
:10565000FEF8E0FF10B5044668B10268136823F055
:1056600001031360FCF70CFB0020606484F8410028
:1056700084F8400010BD0120FCE72DE9F04304460A
:1056800085B017468946FEF787F894F84020012A2E
:10569000034634D0012284F8402094F84120012AA6
:1056A0005FFA82F84FF0020627D10022626403906D
:1056B00084F84160009720212046FFF74FFF054600
:1056C000A0B9024649462046FFF794FED9F82420A7
:1056D000039B4AB90097424631462046FFF73EFFFA
:1056E000054618B92368DE6084F84180002384F8F9
:1056F0004030284605B0BDE8F0833546F6E7022580
:10570000F7E72DE9FF41044615461E468846FEF799
:1057100043F894F84020012A034640D0012284F83F
:10572000402094F84120012AD7B236D142210022EC
:105730006264039084F84110009620212046FFF710
:105740000DFF20BB21682A688A626A684A62AA68DB
:10575000CA620A68286922F44002024342F48002C5
:105760000A60EA68C8F8282041464FF000622046E7
:10577000FFF740FE039B00963A4608212046FFF7BC
:10578000EDFE20B923680822DA6084F84170002316
:1057900084F8403004B0BDE8F0810220F7E7022031
:1057A000F8E7F7B5044616460F46FDF7F5FF94F8FF
:1057B0004020012A034632D0012284F8402094F888
:1057C0004120012A29D100228221626484F84110FB
:1057D000A16C009120462021FFF7C0FE0546B0B91C
:1057E00023687268186820F008001043082A1860BF
:1057F00007D132681A631022DA601A6842F4801204
:105800001A604FF0406239462046FFF7F3FD00234F
:1058100084F84030284603B0F0BD0225F7E70225A2
:10582000F8E71FB50446FDF7B7FF94F8412003469B
:1058300012F0020036D0002284F84020226811685D
:1058400049070DD51168E06B039321F00401116045
:10585000FEF7F2F8039B18B1626C42F00402626436
:10586000216803930A6842F002020A60A26C009267
:10587000022101222046FFF771FE039B90B92268A6
:105880000221D160A26C0092202102462046FFF73F
:1058900065FE38B92268536923F0406353610123E0
:1058A00084F8413004B010BDF0B5044685B016460A
:1058B0000F46FDF771FF94F840202568012A034642
:1058C0004CD0012284F8402094F84120012AD0B223
:1058D00042D100226264002F39D0122284F8412084
:1058E0002A690132E2622A6967620132A2626A6948
:1058F00022F040626A61E26AA2B9009601220221A6
:105900002046FFF72BFE28B923680222DA602046E2
:10591000FFF787FF012384F84130002384F84030EB
:1059200005B0F0BD00960122042120460393FFF745
:1059300015FE0028EED1626A039B127885F82020BC
:10594000626A01326262E26A013AE262D3E7636C40
:1059500043F008036364E0E70220DEE70220DFE7AC
:10596000F0B5044685B016460F46FDF715FF2568CD
:10597000D5F818C094F84020012A034650D00122DF
:1059800084F8402094F84120012AD0B246D1002268
:105990006264002F3DD0222284F841202A6901321E
:1059A000A2632A69276301326263696921F0406159
:1059B00041F080616961C5F818C0A26BA2B9009678
:1059C000012202212046FFF7C9FD28B923680222DF
:1059D000DA602046FFF725FF012384F841300023D9
:1059E00084F8403005B0F0BD009601220621204623
:1059F0000393FFF7B3FD0028EED1226B95F820103A
:105A00001170226B039B01322263A26B013AA263E5
:105A1000D3E7636C43F008036364E0E70220DEE74A
:105A20000220DFE7134908B58B6803F00C03042B51
:105A30001CD0082B1CD14A684B68496813F48003BA
:105A400014BF0D480D48C1F3881118BF002302F0A0
:105A50003F02A1FB0001FAF723FC064B5B68C3F38E
:105A6000014301335B00B0FBF3F008BD0248FCE7E3
:105A70000248FAE70038024000127A000024F400DD
:105A80002DE9F0410D46044610B90120BDE8F08132
:105A9000444B1A6802F00F028A4228D32268970703
:105AA0002DD4D00741D43F4B1A6802F00F02AA420E
:105AB00066D8226851076CD4130707D53A4A216982
:105AC000936823F4604343EAC1039360FFF7AAFF9E
:105AD000354B364A9B68C3F30313D35CD840344B31
